:020000040800F2
:10000000100400201D0B0008310C0008330C000800
:1000100000000000000000000000000000000000E0
:10002000000000000000000000000000350C000887
:100030000000000000000000370C0008390C000828
:10004000CF07000843080008970A0008EB0B0008D8
:10005000F70B00085D0C00085F0C0008610C00083D
:10006000630C0008650C0008670C0008690C0008A8
:100070006B0C00086D0C00086F0C0008710C000878
:10008000730C00080000000000000000750C000860
:1000900000000000770C0008790C00087B0C0008B9
:1000A000000000007D0C00087F0C0008810C000897
:1000B000830C000800000000850C0008870C000875
:1000C000F0B583B004001BD09C4D2078C00719D533
:1000D0008027BF0268680C21014004290BD06868A2
:1000E0000C210140082945D16868C021490201401E
:1000F000780881423ED12868074003D06068002814
:1001000000D1E1E10227206838401DD068680C2149
:1001100001400BD068680C21014008295DD1686856
:10012000C02149020140B803814256D128683840B5
:1001300003D0E068012800D0C6E12868F821884390
:100140002169C900014329602078000776D5E0695C
:100150000028686A63D001210143696200F09EFAB9
:100160000600686A384069D100F098FA801B0328BD
:10017000F7D392E16168012908D0B04800290AD07C
:10018000052908D128687900014329602868790881
:100190000143296006E02968A94A0A402A602968C3
:1001A00008402860606800280BD000F077FA06004D
:1001B00028683840A6D100F071FA801B6528F7D373
:1001C0006BE100F06BFA0600286838409AD000F026
:1001D00065FA801B6528F7D35FE1E068002828688E
:1001E0000ED001210143296000F058FA060028686A
:1001F0003840A2D100F052FA801B0328F7D34CE11B
:1002000001218843286000F049FA06002868384038
:100210009AD000F043FA801B0328F7D33DE1012177
:100220008843686200F03AFA0600686A384005D0F0
:1002300000F034FA801B0328F7D32EE12078400722
:1002400062D500200090F806E969014008D1E9690B
:100250000143E961E969084001900198012000909B
:100260009B480068C00512D499480068A90D014355
:100270009748016000F012FA060095480068C00532
:1002800005D400F00BFA801B6528F6D305E1A068C1
:10029000012809D0002801D1286A0AE00528286A27
:1002A00007D1042101432962286A012101432962FF
:1002B00006E0012188432862286A042188432862D5
:1002C000A06800280CD000F0E9F90600286A384040
:1002D00013D100F0E3F9801B7E498842F6D3DCE0BD
:1002E00000F0DCF90600286A384006D000F0D6F9A4
:1002F000801B78498842F6D3CFE00098002803D0CD
:10030000E86975490140E9612078C0061FD5606938
:10031000012855D1686B042101436963686B012191
:100320000143696300F0BAF90600686B384007D1F1
:1003300000F0B4F9801B0328F7D3AEE000100240B0
:10034000686BF8218843A169C9000143696320787B
:10035000800618D568680C2101400C290CD068680B
:100360000C210140082947D16868C0214902014099
:10037000C020400281423FD1686BC00303D5206A90
:10038000012800D0A0E0606A002800D19EE06968E2
:100390000C220A40082A00D181E03F069149022838
:1003A00028686DD10140296000F078F906002868BE
:1003B000384047D000F072F9801B0328F7D36CE077
:1003C0000421C9438842686B03D1042188436863D0
:1003D000B6E7042101436963686B012188436863C0
:1003E00000F05CF90600686B3840B0D000F056F9B8
:1003F000801B0328F7D350E0206A0028686B0ED0DA
:10040000F9030143696300F049F90600686BC00312
:10041000B9D400F043F9801B0328F7D33DE0084925
:100420000140696300F03AF90600686BC003AAD581
:1004300000F034F9801B0328F7D32EE0FFFFFBFF09
:10044000FFFFFEFFE86A0F218843216B0143E96249
:10045000686880490140E06A0843A16A0143696015
:10046000286879080143296000F018F90600286817
:1004700038402BD100F012F9801B0328F7D30CE091
:100480000140296000F00AF90600286838401DD0B4
:1004900000F004F9801B0328F7D30320FEBD0128D8
:1004A00012D06868E96AC02252020240A36A9A42E6
:1004B0000AD10907090F226B914205D1F021890366
:1004C0000140E06A814201D00120FEBD0020FEBD56
:1004D0000070004089130000FFFFFFEFF2B582B00B
:1004E000040065D00127FF4301255B4800682840D0
:1004F00088420AD258480068384001435648016093
:10050000006828400299884252D12168534E022047
:1005100001420CD0490704D57168E022D2000A4399
:1005200072607168F0229143A2680A437260216888
:1005300029402BD06168012902D13068800308E08E
:10054000022902D13068800103E0032903D1706BD6
:10055000C00303D42CE03268104029D07068032215
:1005600090430143716000F099F8009070680C218D
:10057000014060688000814208D000F08FF8009947
:10058000401A37498842F1D30320FEBD0298324910
:100590000968294088420DD22F4800680740029818
:1005A00038432D490860086805400298854201D00B
:1005B0000120FEBD2078400705D57068294901401B
:1005C000E0680843706000F00FF82749726812066F
:1005D000120F895CC84025490860002000F064F8CB
:1005E0000020FEBDFFFFFFFEF0B589B004A800BFEC
:1005F00022A1102200F07AF8684600BF23A1102241
:1006000000F074F81A490B681A481B4A0C241C4065
:10061000082C02D00C2C19D019E00F2504AC9E0C2C
:100620002E40A45D6E46896A0D40715DC0256D0245
:100630002E001E4080277F02BE4203D02B40AB42DB
:1006400000D1100000F06CF8604300E0100009B029
:10065000F0BD0000FF7FC2FF0020024000100240FA
:1006600089130000FFF8FFFF100C00080C000020A9
:100670000410024000127A00006CDC020203040540
:10068000060708090A0B0C0D0E0F101001020304D7
:1006900005060708090A0B0C0D0E0F1001484068EB
:1006A000704700BF0000002038B504000D4DFA204F
:1006B0008000297800F034F801000B48006800F051
:1006C0002FF800F0A3F800280AD1042C08D2002249
:1006D00021000020C04300F095F8AC60002032BD3E
:1006E000012032BD000000200C00002070B4103A40
:1006F00003D378C9103A78C0FBD2530701D318C985
:1007000018C001D508C908C0D20704D30B880380DC
:10071000891C801C002A01D50B78037070BC7047BF
:100720000022030A8B420BD203098B4219D24308E1
:100730008B422ED2411A00D20146524110467047D8
:10074000FF2209023FD012068B4205D31212090282
:100750008B4201D31212090203098B4219D300E024
:10076000090AC3098B4201D3CB01C01A5241830944
:100770008B4201D38B01C01A524143098B4201D3F2
:100780004B01C01A524103098B4201D30B01C01A1D
:100790005241C3088B4201D3CB00C01A5241830897
:1007A0008B4201D38B00C01A524143088B4201D3C4
:1007B0004B00C01A5241884200D3401A5241CFD256
:1007C00001461046704708B500F03AF808BDFEE74C
:1007D00010B5C20018231340FF249C40E243890750
:1007E000090E9940002801D4124B03E0124B000778
:1007F000000F083880088000181803681A40114359
:10080000016010BD80B5FFF7E3FF01BD10B5401ECC
:1008100080214904884201D3012010BD074C60604B
:1008200003210020C043FFF7D3FF0020A060072171
:10083000216010BD00E400E01CED00E010E000E0ED
:100840007047FEE7F1B585B00023012228E00527B7
:10085000049EAF403743029D2F60624D2E68E543F2
:100860002E404F68FF0300D526435E4F3E607E68F2
:100870002E404F68BF0300D526435A4F7E60BE68A6
:100880002E404F68FF0200D52643564FBE60FE68DB
:1008900035404E68B60201D52C432500FD605B1C37
:1008A0000C682500DD4000D193E001259D402C40DF
:1008B000F5D05E006F463E7003263F78BE40F7439A
:1008C00001974E68012E05D0022E03D0112E01D0C3
:1008D000122E16D1059EB768019E3E40B446CF68E1
:1008E0006E463678B74066463743059EB760059E2C
:1008F0007668AE434D682D0915409D403543059EF1
:100900007560059DEE68019D35408E686F463F78A5
:10091000BE402E43059DEE609D006E46B5704D684D
:10092000022D01D0122D1BD1059DDE08B600AD1998
:100930002E6A03966E46B7781C263E406F467E7040
:10094000039FBC466E4677780F26BE406746B74386
:10095000BC460F696E467678B740664637432F62CD
:10096000059D2E68019D35400E79B607B60F6F467E
:100970003F78BE402E43059D2E604D68ED008ED51C
:10098000194D2D681543184E356035681540019591
:10099000019D164D9E08B600AD1902952F686D4653
:1009A000AE780C2535400F26AE40B7430497059E20
:1009B0009027FF05BE4201D1002749E70C4FBE42F8
:1009C00001D1012744E70B4FBE4200D03FE7022789
:1009D0003EE706B0F0BD002A01D081617047816218
:1009E0007047000000040140181002400800014058
:1009F000000400480008004810B586B000F04CF82C
:100A000000F024F801A8142100F06EF88020800284
:100A10000D490A6802430A6009680840009000987E
:100A20003020019001200290002003900490902437
:100A3000E40501A92000FFF705FF00223021200076
:100A4000FFF7C9FFFEE700001410024010B592B096
:100A500004A8342100F048F86846102100F044F85A
:100A60002020049001200C9000240D9404A8FFF78E
:100A700027FB002800D0FEE707200090032001900C
:100A80000294039401216846FFF728FD002800D056
:100A9000FEE712B010BDFEE780B5064801681022DF
:100AA0000A4302600020FFF7FFFD00F01FF800205E
:100AB00002BD000000200240130030B414001500F5
:100AC000103902D310393CC0FCD2490700D30CC006
:100AD00000D504C0890002D30280801C002900D503
:100AE000027030BC704700000022E5E781B00120B1
:100AF00009490A6802430A600A6810400090009899
:100B0000802040054A6802434A60496808400090D6
:100B1000009801B0704700BF18100240094880F3E8
:100B2000088804200168090E1F22914205D1064859
:100B30000121016005480021016005488047054802
:100B4000004700001004002018100240000001407F
:100B50000D0C0008510C000830B401210268001D82
:100B6000002A0FD00368C318446808300C4202D032
:100B70004D466D1E64191D6825601B1D241D121F26
:100B8000ECD0F8E730BC704710B50749794418310C
:100B9000064C7C44163404E0081D0A68891888470E
:100BA0000100A142F8D110BD0800000018000000AB
:100BB000A9FFFFFF100000008800000000000020D7
:100BC0000000000000F00BF8002801D0FFF7DCFF68
:100BD0000020C046C046FFF70FFF00F002F80120DA
:100BE000704780B500F002F801BDFEE707463846C1
:100BF00000F002F8FBE7FEE780B5C046C046024AB7
:100C000011001820ABBEFBE7260002007047000071
:100C100000000000000000000102030406070809AC
:100C2000024841680278891841607047000000203E
:100C3000FEE7FEE77047704780B5FFF7F1FF01BDA3
:100C400001000000000000000400000000127A0013
:100C5000C046C046C046C046FFF7B4FFFEE7FEE709
:100C6000FEE7FEE7FEE7FEE7FEE7FEE7FEE7FEE75C
:100C7000FEE7FEE7FEE7FEE7FEE7FEE7FEE7FEE74C
:080C8000FEE7FEE7FEE7FEE7D8
:0400000508000C5192
:00000001FF
